:1000000001308A0085290000FF00030E8301A10052
:100010000A08A0008A010408A2007708A300780853
:10002000A4007908A5007A08A60003170D08031399
:10003000A70003170F080313A80003170C080313E6
:10004000A90003170E080313AA00831383128C3030
:100050008400801E2D288C1A4E2822088400230834
:10006000F7002408F8002508F9002608FA002708F8
:1000700003178D000313280803178F0003132908A3
:1000800003178C0003132A0803178E00031320089C
:100090008A00210E8300FF0E7F0E09008A110A12CA
:1000A0005A285039EF33F2306D10733A6139F43217
:1000B000E4100A008C1E5A281A088316D9008312ED
:1000C000CB08031D6A284130831659028312CA00E7
:1000D000CB0ACA284B0B7928831659083D3C0319D3
:1000E00075288312C914772883168312C910CB0A86
:1000F000CA28831659080A3C031D9C280613403061
:1001000083128606C91898284A0D8316DA00DA0D7C
:10011000DA0DF830DA05023083124B0283165A07E3
:10012000393E84008313800183124A0B98284914B6
:10013000CB01C910CA28831683124B08013C03184F
:10014000C82802304B02073C031CC828C918C52820
:10015000831659082C3C0318C6285908393C031C3F
:10016000C62883124A0D8316DA00DA0DDA0DF8304C
:10017000DA05023083124B0283165A07393E840097
:100180008313590880008312CB0A8316CB2883126D
:10019000CB01C910831683128C128A110A122D28E2
:1001A000D6308400831300080319E3280230F800D6
:1001B000F701F70BD928F80BD8289730F700F70B81
:1001C000DF28800BD62808000B088316D500831281
:1001D0008B13831603178C170C14000000000313F5
:1001E000D51FF52883128B178316831203170C086B
:1001F0007F390319582983160313D5008312031777
:100200000D0883160313D600831203170F088316F5
:100210000313D700550883120C1E0C29990083166E
:100220005608831203178D00831603135708831291
:1002300003178F0003130B088316D80083128B1348
:10024000831603178C170C14000000000313D81F2B
:100250002C2983128B178316831203170C0D0E0D96
:100260007F390319582983160313D5008312031706
:100270000D0883160313D600831203170F08831685
:100280000313D700550883120C1E442999008316C6
:100290005608831203178D00831603135708831221
:1002A00003178F008D0A03198F0A0313E42803171D
:1002B00003138A110A12D9297808031964297708C7
:1002C0008000840AF80B5F2908008008031982293E
:1002D0008316D6010408D5005610831B5614000857
:1002E00083120C1E7129990083165508840083130C
:1002F00056188317840A031D80298312850A8316E2
:10030000831265298A110A12472A03081F398300BC
:100310004910CA01CB01C910713083168F009001BA
:100320000F080317871510300313990000309A0047
:10033000A6309800903083129800CC01CE01CD01F8
:10034000831603170908C039890003131F129F126F
:100350000030031788008312870188018901831305
:100360000313AB01AC018316D20103170908C0398E
:10037000890003131F129F12013003178800831294
:1003800003131F179F1783169F1783121F1408301C
:100390008316D500FA30D6008312D0208316D50BF1
:1003A000CA295130831203178D0000308F000313C8
:1003B000E4280030F8001F08C33978049F00831632
:1003C000D301A03084008313F7013230F800831288
:1003D0005C219F149F18EA2983161E08D400D201BD
:1003E00083129F149F18F2291E08FA0083161E0814
:1003F000D5007A08D600013C0318522AFF3A031DA3
:10040000052A5508BB3C0318522A4B30D6008312EC
:10041000D0208316D3015308073C031C322A8312D1
:100420009F149F18112A1E08FA0083161E08D50073
:100430007A08D600013C0318292AFF3A031D242A12
:100440005508BB3C0318292A0310520D013ED20067
:100450002B2A0310D20D3230D6008312D0208316FF
:10046000D30A0B2AA03083124C078400831383160F
:1004700052088000A03083124C07840083130008C8
:100480000A3C031D502AA030840083136529A03044
:1004900084008313F7013230F8005C21CC01512A2B
:0A04A000CC0A83168312E9296300D9
:04400E00C42FFF3F7D
:00000001FF
;PIC16F886
;CRC=AE38  CREATED="17-Apr-19 03:36"
