:1000000002308A008E2A0000FF00030E8301A10047
:100010000A08A0008A010408A2007708A300780853
:10002000A4007908A5007A08A60003170D08031399
:10003000A70003170F080313A80003170C080313E6
:10004000A90003170E080313AA00831383128C3030
:100050008400801E2D288C1A4E2822088400230834
:10006000F7002408F8002508F9002608FA002708F8
:1000700003178D000313280803178F0003132908A3
:1000800003178C0003132A0803178E00031320089C
:100090008A00210E8300FF0E7F0E09008A110A12CA
:1000A0008C285039EF33F2306D10733A6139F432E5
:1000B000E4100A00C13AF437A0316139F2346239F0
:1000C000613A6510A039F430723A653221050001B9
:1000D000C13AF437A0316139F2346239613A6510BE
:1000E000A0226E32A036613CA01EA012CC3A20168F
:1000F000ED346E103D1025267505ED3464103D106D
:100100002526750500002D10D424CD22A027552AC0
:1001100020142526F5140A008C1E8C281A08831634
:10012000EA008312CB08031D9C28413083166A0223
:100130008312CA00CB0AFC284B0BAB2883166A0833
:100140003D3C0319A7288312C914A92883168312DA
:10015000C910CB0AFC2883166A080A3C031DCE2866
:100160000613403083128606C918CA284A0D831622
:10017000EB00EB0DEB0DF830EB05023083124B0278
:1001800083166B07393E84008313800183124A0B68
:10019000CA284914CB01C910FC28831683124B08C6
:1001A000013C0318FA2802304B02073C031CFA28D2
:1001B000C918F72883166A082C3C0318F8286A081F
:1001C000393C031CF82883124A0D8316EB00EB0D13
:1001D000EB0DF830EB05023083124B0283166B07F0
:1001E000393E840083136A0880008312CB0A831689
:1001F000FD288312CB01C910831683128C128A1139
:100200000A122D28E03084008313000803191529F1
:100210000230F800F701F70B0B29F80B0A29973089
:10022000F700F70B1129800B082908000B0883162B
:10023000DF0083128B13831603178C170C14000036
:1002400000000313DF1F272983128B1783168312E5
:1002500003170C087F3903198A2983160313DF005B
:10026000831203170D0883160313E000831203178C
:100270000F0883160313E1005F0883120C1E3E294A
:10028000990083166008831203178D0083160313E9
:100290006108831203178F0003130B088316E20013
:1002A00083128B13831603178C170C1400000000A5
:1002B0000313E21F5E2983128B1783168312031721
:1002C0000C0D0E0D7F3903198A2983160313DF00E5
:1002D000831203170D0883160313E000831203171C
:1002E0000F0883160313E1005F0883120C1E7629A2
:1002F000990083166008831203178D008316031379
:100300006108831203178F008D0A03198F0A0313E4
:10031000162903170313080078080319942977088E
:100320008000840AF80B8F2908000B088316E2006E
:1003300083128B13831603178C170C140000000014
:100340000313E21FA62983128B1783160318E029D3
:10035000831203170C087F3983160313E2008312FC
:1003600003170D0883160313E300831203170F0806
:1003700083160313E400620883120C1EBD29990042
:1003800083166308831203178D0083160313640812
:10039000831203178F0003130B088316E5008312E3
:1003A0008B13831603178C170C1400000000031323
:1003B000E51FDD2983128B178316E10BE0290F2A35
:1003C000831203170C0D0E0D7F3983160313E20001
:1003D000831203170D0883160313E3008312031718
:1003E0000F0883160313E400620883120C1EF6291B
:1003F000990083166308831203178D008316031375
:100400006408831203178F008D0A03198F0A0310E3
:1004100083160313E10B0D2A0F2A831295298312E9
:1004200008008316E9010408E8006910831B6914B9
:10043000620EF038E400E407E23EE500323EE700F9
:1004400062080F39E507E507E707E93EE600E6073A
:10045000E607610E0F39E607E707E60DE70DE70946
:10046000E70D61080F39E707E40D0730E3000A30B4
:10047000E707E603031C382AE607E503031C3C2ACA
:10048000E507E403031C402AE407E303031C442AB2
:10049000E330840083130730680568138407E7306E
:1004A0000402031968170008F700031D5F2A681B80
:1004B0005F2A681A692AE8195F2A2030622AE8153B
:1004C00068123030F707770883120C1E652A9900EE
:1004D0008316840A681F4F2A8312080080080319B4
:1004E0008B2A8316E0010408DF006010831B601470
:1004F000000883120C1E7A2A990083165F08840074
:10050000831360188317840A031D892A8312850ABE
:10051000831683126E2A8A110A12312C03081F399E
:1005200083004910CA01CB01C910713083168F00B6
:1005300090010F080317871510300313990000303E
:100540009A00A6309800903083129800CC01CE011A
:10055000CD01831603170908C039890003131F1240
:100560009F120030031788008312870188018901D8
:1005700083130313AB01AC018316D20103170908DF
:10058000C039890003131F129F120130031788001E
:10059000831203131F179F1783169F1783121F14AD
:1005A00008308316DF00FA30E00083120221831640
:1005B000DF0BD32A5130831203178D0000308F00D8
:1005C000031316210030F8001F08C33978049F0078
:1005D0008316D301D401A03084008313F701323095
:1005E000F80083128C215A3003178D0000308F00E1
:1005F000031316218316DC01DB01DE01DD01DC01C2
:10060000DB015C08033C031C4A2B031D0B2B5B081E
:10061000E73C031C4A2B83129F149F180D2B1E08C6
:10062000FA0083161E08D5007A08D600DB08031DE1
:10063000252BDC08031D252B5608D8005508D700AC
:100640005608DA005508D900412B58085602031CF9
:10065000332B031D2F2B550857020318332B560835
:10066000D8005508D70056085A02031C412B031D19
:100670003D2B590855020318412B5608DA0055083E
:10068000D9000530E000831202218316DB0A03192A
:10069000DC0A012B59085707DF005808E0005A0808
:1006A00003185A0FE0070310E00CDF0C68308312C8
:1006B00003178D0000308F0003101B3083160313C7
:1006C000E100831295211030840083165808E2005F
:1006D0005708E10083121122773003178D00003094
:1006E0008F000310083083160313E1008312952155
:1006F0001030840083165A08E2005908E100831282
:1007000011227C3003178D0000308F000314073056
:1007100083160313E10083129521103084008316A1
:100720006008E2005F08E100831211220A300C1E0B
:10073000972B990004308316DF00FA30E000831213
:1007400002218316DF0B9D2BD201540BAB2B013002
:10075000DD070318DE0A83129F149F18AD2B1E08B5
:10076000FA0083161E08DF007A08E00059085707D0
:10077000E1005808E2005A0803185A0FE207031074
:10078000620CFA00610CF900F8007A086002031CA0
:100790006F2C031DCF2B78085F02031C6F2C0130D8
:1007A000D4004B30E000831202218316D30153089A
:1007B000073C031C0D2C83129F149F18DD2B1E0871
:1007C000FA0083161E08DF007A08E0005908570770
:1007D000E1005808E2005A0803185A0FE207031014
:1007E000620CFA00610CF900F8007A086002031C40
:1007F000042C031DFF2B78085F02031C042C03103C
:10080000520D013ED200062C0310D20D3230E00012
:10081000831202218316D30AD72BA03083124C07F0
:1008200084008313831652088000A03083124C0783
:100830008400831300080A3C03192D2C83165E08DC
:10084000743C03186C2CFF3A0319282C83122D2CAE
:100850005D082F3C03186C2C8312A0308400831396
:100860006E2A83165E08743C03185C2CFF3A031D45
:100870003D2C5D082F3C03185C2C8330831203173A
:100880008D0000308F0003100C3083160313E1003D
:10089000831295211030840083165E08E2005D0803
:1008A000E1008312112229300C1E542C99000A30C9
:1008B0000C1E582C99008316A03084008313F70176
:1008C0003230F80083128C218316D401DE01DD0161
:1008D0008312CC016E2C83168312CC0A8316A42BB0
:0208E0006300B3
:04400E00C42FFF3F7D
:00000001FF
;PIC16F886
;CRC=4F41  CREATED="17-Apr-19 23:48"
