:1000000001308A00E2290000733A61392031693AEF
:10001000A0180A005039EF33F2306D10733A61398D
:10002000F432E4100A004937F03A741D0A00D43261
:10003000783A20366537673A6810E939A0126410BB
:100040000A00A531A01E200500005D308400831346
:100050000008031938280230F800F701F70B2E28A2
:10006000F80B2D289730F700F70B3428800B2B283E
:1000700008000B08DD008B13831603178C170C1474
:100080000000000083120313DD1B8B1703170C08FD
:100090007F3903198F280313DD0003170D0803139D
:1000A000DE0003170F080313DF005D080C1E56283F
:1000B00099005E0803178D0003135F0803178F0074
:1000C00003130B08E0008B13831603178C170C1413
:1000D0000000000083120313E01B8B1703170C0DA5
:1000E0000E0D7F3903198F280313DD0003170D0848
:1000F0000313DE0003170F080313DF005D080C1E57
:100100007F2899005E0803178D0003135F0803170B
:100110008F008D0A03198F0A03133928031703135D
:1001200008005A08DC005908DB005C08FA005B088C
:10013000840083137A18831780080319A328DB0A25
:100140000319DC0A952859085B02F7005C08FA00DD
:100150005A08031C5A0FFA027708F8008A110A128B
:10016000392A0B08DB008B13831603178C170C142A
:100170000000000083120313DB1B8B170318E92810
:1001800003170C087F390313DB0003170D08031353
:10019000DC0003170F080313DD005B080C1ECE28DC
:1001A00099005C0803178D0003135D0803178F0087
:1001B00003130B08DE008B13831603178C170C1424
:1001C0000000000083120313DE1B8B17DA0BE928F3
:1001D000092903170C0D0E0D7F390313DB000317DC
:1001E0000D080313DC0003170F080313DD005B0881
:1001F0000C1EF82899005C0803178D0003135D0896
:1002000003178F008D0A03198F0A03100313DA0BEB
:10021000B12808006008F8015F02031812295F087E
:10022000F7001E29F7010830E100DF0DF70D600827
:1002300077020318F700F80DE10B152908002030AC
:100240005A1E3030DB005908F700D91F2F29F70953
:10025000F70A7708D9002D30DB00DA175A1459084D
:10026000DF006430E0000A217708D90030307807D9
:10027000DC005908DF000A30E0000A21303077073F
:10028000DE0030307807DD005B08F70030305C02BC
:1002900003194E29DA14DA1B5A1562295B08DC00AF
:1002A0002030DB0030305D0203195A295A14DA1B62
:1002B000DA146229031D5A14031D62295C08DD004B
:1002C0002030DC005A196929DA186D295A18712969
:1002D00075295B080C1E6A2999005C080C1E6E29A2
:1002E00099005D080C1E722999005E080C1E762983
:1002F00099008A110A12512A800803199229DA01F9
:100300000408D9005A10831B5A1400080C1E8629B1
:1003100099005908840083135A188317840A031913
:10032000850A7C298A110A12642A8316061383120D
:100330000617043003178D0000308F000313392097
:100340003230DD0025200830DB00DB080319D4291A
:1003500001305B02F8005A08DC00F8080319B429E0
:100360000310DC0CF80BB0295C1CC32931300C1EC7
:10037000B72999000A300C1EBB2999008316061371
:1003800083120617CF2930300C1EC42999000A3079
:100390000C1EC829990083160613831206133230E7
:1003A000DD002520DB03A52983160613831206131F
:1003B0003230DD0025200A300C1EDC2999008A111C
:1003C0000A12932A03081F398300713083168F00A5
:1003D00090010F08031787110C3003139900A23006
:1003E0009800903083129800F430D400D601D501E3
:1003F000831603170908C039890003131F129F12BF
:100400000030031788008312870188018901831354
:100410000313A001A1010830D900FA30DD00252026
:10042000D90B0D2A0A3003178D0000308F000313FB
:1004300039200430D900FA30DD002520D90B1B2AE1
:10044000133003178D0000308F0003133920223042
:10045000840083138403840A8C1E2C2A1A088000CB
:100460000D300002031D2B2A8001DA012230D90051
:1004700091287808D7000430D900FA30DD00252013
:10048000D90B3D2A173003178D0000308F00031061
:100490000F300313DA00B1205708D9001830DA0002
:1004A0001F2920300C1E522A99000A300C1E562A91
:1004B00099000430D900FA30DD002520D90B5B2AE1
:1004C0002230840083137C2920300C1E652A990079
:1004D0000A300C1E692A99002230570784008313C2
:1004E0000A308000D80158085702031C952A223090
:1004F0005807840083130008D90059080C1E7E2A6F
:100500009900223003178D0000308F000310043053
:100510000313DA00B1202230580784008313000847
:0E052000D900DA009529D80A732A202A630030
:04400E00C42FFF3F7D
:00000001FF
;PIC16F886
;CRC=9940  CREATED="03-Apr-19 00:04"
