:1000000001308A00FC290000733A61392031693AD5
:10001000A0180A005039EF33F2306D10733A61398D
:10002000F432E4100A00C13AF437A0316139F234F5
:100030006239613A6510A039F430723A65322105AF
:100040000001C13AF437A0316139F2346239613AC2
:100050006510A0226E32210500014937F03A741D67
:100060000A00D432783A20366537673A6810E939A1
:10007000A01264100A00A531A01E200500005D300A
:10008000840083130008031952280230F800F70196
:10009000F70B4828F80B47289730F700F70B4E2846
:1000A000800B452808000B08DD008B13831603170F
:1000B0008C170C140000000083120313DD1B8B1738
:1000C00003170C087F390319A9280313DD00031750
:1000D0000D080313DE0003170F080313DF005D088C
:1000E0000C1E702899005E0803178D0003135F082B
:1000F00003178F0003130B08E0008B1383160317FD
:100100008C170C140000000083120313E01B8B17E4
:1001100003170C0D0E0D7F390319A9280313DD00F9
:1001200003170D080313DE0003170F080313DF0086
:100130005D080C1E992899005E0803178D000313B3
:100140005F0803178F008D0A03198F0A03135328C2
:100150000317031308005A08DC005908DB005C0889
:10016000FA005B08840083137A1883178008031948
:10017000BD28DB0A0319DC0AAF2859085B02F70027
:100180005C08FA005A08031C5A0FFA027708F800B4
:100190008A110A12752A0B08DB008B1383160317CA
:1001A0008C170C140000000083120313DB1B8B1749
:1001B0000318032903170C087F390313DB00031707
:1001C0000D080313DC0003170F080313DD005B08A1
:1001D0000C1EE82899005C0803178D0003135D08C6
:1001E00003178F0003130B08DE008B13831603170E
:1001F0008C170C140000000083120313DE1B8B17F6
:10020000DA0B0329232903170C0D0E0D7F39031375
:10021000DB0003170D080313DC0003170F0803139B
:10022000DD005B080C1E122999005C0803178D0085
:1002300003135D0803178F008D0A03198F0A03103B
:100240000313DA0BCB2808006008F8015F020318DB
:100250002C295F08F7003829F7010830E100DF0D8D
:10026000F70D600877020318F700F80DE10B2F294E
:10027000080020305A1E3030DB005908F700D91F23
:100280004929F709F70A7708D9002D30DB00DA177A
:100290005A145908DF006430E00024217708D9009F
:1002A00030307807DC005908DF000A30E0002421F4
:1002B00030307707DE0030307807DD005B08F7006C
:1002C00030305C0203196829DA14DA1B5A157C29CC
:1002D0005B08DC002030DB0030305D02031974293C
:1002E0005A14DA1BDA147C29031D5A14031D7C29C5
:1002F0005C08DD002030DC005A198329DA188729D0
:100300005A188B298F295B080C1E842999005C08D8
:100310000C1E882999005D080C1E8C2999005E0826
:100320000C1E902999008A110A128D2A800803193F
:10033000AC29DA010408D9005A10831B5A140008AA
:100340000C1EA02999005908840083135A1883179A
:10035000840A0319850A96298A110A12A02A83168B
:10036000061383120617043003178D0000308F0028
:10037000031353203230DD003F200830DB00DB0860
:100380000319EE2901305B02F8005A08DC00F80876
:100390000319CE290310DC0CF80BCA295C1CDD29DB
:1003A00031300C1ED12999000A300C1ED529990034
:1003B0008316061383120617E92930300C1EDE2936
:1003C00099000A300C1EE229990083160613831245
:1003D00006133230DD003F20DB03BF2983160613EE
:1003E000831206133230DD003F200A300C1EF6293E
:1003F00099008A110A12CF2A03081F39830071302D
:1004000083168F0090010F08031787110C30031318
:100410009900A2309800903083129800D501D40141
:10042000831603170908C039890003131F129F128E
:100430000030031788008312870188018901831324
:100440000313A001A1010830D900FA30DD003F20DC
:10045000D90B252A0A3003178D0000308F000313B3
:100460005320133003178D0000308F0003135320E7
:10047000D601D6015608313C031C4E2A83160613BA
:10048000831206173230DD003F20831606138312D5
:1004900006133230DD003F20D60A3A2A21300317F6
:1004A0008D0000308F00031353200430D900FA3040
:1004B000DD003F20D90B572A2D3003178D00003067
:1004C0008F00031353202230840083138403840A93
:1004D0008C1E682A1A0880000D300002031D672A4E
:1004E0008001DA012230D900AB287808D700043027
:1004F000D900FA30DD003F20D90B792A31300317BB
:100500008D0000308F0003100F300313DA00CB2072
:100510005708D9001830DA00392920300C1E8E2AED
:1005200099000A300C1E922A99000430D900FA3042
:10053000DD003F20D90B972A2230840083139629AF
:1005400020300C1EA12A99000A300C1EA52A990001
:1005500022305707840083130A308000D8015808DE
:100560005702031CD12A2230580784008313000845
:10057000D90059080C1EBA2A99003C3003178D0087
:1005800000308F00031004300313DA00CB20223038
:100590005807840083130008D900DA00AF29D80A6D
:0605A000AF2A5C2A630093
:04400E00C42FFF3F7D
:00000001FF
;PIC16F886
;CRC=3A63  CREATED="17-Apr-19 23:49"
