:1000000000308A009D2800005039EF33F2306D1027
:10001000733A6139F432E4100A00593084008313D2
:100020000008031920280230F800F701F70B162802
:10003000F80B15289730F700F70B1C28800B1328B6
:1000400008000B08D8008B13831603178C170C14A9
:100050000000000083120313D81B8B1703170C0832
:100060007F39031977280313D80003170D080313EA
:10007000D90003170F080313DA0058080C1E3E2896
:100080009900590803178D0003135A0803178F00AE
:1000900003130B08DB008B13831603178C170C1448
:1000A0000000000083120313DB1B8B1703170C0DDA
:1000B0000E0D7F39031977280313D80003170D0895
:1000C0000313D90003170F080313DA0058080C1E96
:1000D00067289900590803178D0003135A0803175E
:1000E0008F008D0A03198F0A0313212803170313A6
:1000F0008A110A12E72878080319832877088000F4
:10010000840AF80B7E280800800803199A28D90170
:100110000408D8005910831B591400080C1E8E289F
:10012000990058088400831359188317840A031907
:10013000850A84288A110A124D2903081F39830071
:10014000713083168F0090010F088312D20183163D
:10015000031787110C3003139900A23098009030D8
:1001600083129800D401D301831603170908C039FC
:10017000890003131F129F12003003178800831297
:1001800087018801890183130313D501831603179F
:100190000908C039890003131F129F120130031789
:1001A0008800831203131F179F1783169F1783124C
:1001B0001F140830D800FA30D9000D20D80BDB28E6
:1001C000043003178D0000308F0003132128003006
:1001D000F8001F08C33978049F00D601203084003E
:1001E0008313F7013230F8007B209F149F18F62804
:1001F00083161E088312D700D5019F149F18FE286E
:100200001E08FA0083161E088312D8007A08D90047
:10021000013C03185729FF3A031D12295808BB3C1B
:10022000031857294B30D9000D20D6015608073C3A
:10023000031C3B299F149F181B291E08FA008316D4
:100240001E088312D8007A08D900013C031834290B
:10025000FF3A031D2F295808BB3C0318342903100B
:10026000550D013ED50036290310D50D3230D90089
:100270000D20D60A16292030520784008313550812
:100280008000203052078400831300080A3C031DBD
:10029000562920308400831384282030840083135F
:1002A000F7013230F8007B20D2015729D20AF52815
:0202B0006300E9
:04400E00C42FFF3F7D
:00000001FF
;PIC16F886
;CRC=5967  CREATED="03-Apr-19 00:04"
