:1000000006308A007B2E0000FF00030E8301A10052
:100010000A08A0008A010408A2007708A300780853
:10002000A4007908A5007A08A60003170D08031399
:10003000A70003170F080313A80003170C080313E6
:10004000A90003170E080313AA00831383128C3030
:100050008400801E2D288C1A4E2822088400230834
:10006000F7002408F8002508F9002608FA002708F8
:1000700003178D000313280803178F0003132908A3
:1000800003178C0003132A0803178E00031320089C
:100090008A00210E8300FF0E7F0E09008A110A12CA
:1000A0005A286F3366050000D31E25332C10D61E48
:1000B00025330A008C1E5A281A08F200CB08031DAB
:1000C000662841307202CA00CB0AB4284B0B712853
:1000D00072083D3C03196E28C9146F28C910CB0A59
:1000E000B42872080A3C031D8F288316061340307B
:1000F00083128606C9188C284A0DF300F30DF30D00
:10010000F830F30502304B027307393E8400831345
:1001100080014A0B8C284914CB01C910B4284B0824
:10012000013C0318B22802304B02073C031CB228E2
:10013000C918B12872082C3C0318B1287208393C40
:10014000031CB1284A0DF300F30DF30DF830F3054D
:1001500002304B027307393E84008313720880001B
:10016000CB0AB428CB01C9108C128A110A122D288F
:100170004F308400831300080319CB280230F800A5
:10018000F701F70BC128F80BC0289730F700F70BE1
:10019000C728800BBE28080083168C16C030831237
:1001A0008B04CB01C9108A110A12B02E0B08CF00A4
:1001B0008B13831603178C170C1400000000831296
:1001C0000313CF1B8B1703170C087F3903192C2936
:1001D0000313CF0003170D080313D00003170F08F4
:1001E0000313D1004F080C1EF32899005008031781
:1001F0008D000313510803178F0003130B08D2005F
:100200008B13831603178C170C1400000000831245
:100210000313D21B8B1703170C0D0E0D7F39031917
:100220002C290313CF0003170D080313D000031765
:100230000F080313D1004F080C1E1C299900500809
:1002400003178D000313510803178F008D0A03193C
:100250008F0A0313D628031703138A110A12D52E07
:100260005E080319A029E60062080319A029E60721
:10027000031841297F30E602031CA0290319A02995
:1002800045298130E6070318A0296608F700F80120
:10029000F901FA015F08EA00EA176008E90061085D
:1002A000E8001830E600E701681C6E296508FA07C7
:1002B000031C6029F90A031D6029F80A0319E717CE
:1002C0006408F907031C6729F80A0319E71763088C
:1002D000E000E0176008F8070318E717E70DF80CCF
:1002E000F90CFA0CEA0CE90CE80C0310E60B5329A4
:1002F0000130F7070318A029F81B8529EA0DFA0D2C
:10030000F90DF80DF7030319A029EA1F9629FA0A37
:10031000031D9629F90A031D9629F80A031D96293B
:10032000F80CF90CFA0CF70A0319A0295F08E7008A
:100330006308E706E71F9E29F817A429F813A429E4
:10034000F701F801F901FA0108008E30F70063089F
:10035000F8006208F900FA01F808031DB9297908C4
:10036000F800F9010830F702F808031DB929F70170
:10037000C1290310F81BC029F90DF80DF703B9299D
:10038000F813080080308318E706EC01ED016308DC
:10039000EB006708EB0662080319B22AEA00F700CF
:1003A00066080319BB2AEA020319572A031C152AF7
:1003B0006708F000F0176808EF006908EE00ED012B
:1003C0000310F00CEF0CEE0CED0CEA0BDF29EB1F29
:1003D000EC296C14CF2A6C106A106C1665308400FE
:1003E0008313E42A6C12EB1BFF296A1C0A2AF00C07
:1003F000EF0CEE0CED0CF70A0319CA2A0A2AF01BBF
:100400000D2A0310ED0DEE0DEF0DF00DF70303199E
:10041000CA2AFF296C17772A6C136308EB00EB1FBD
:10042000132AF017C32AF013C32A6608EA00F7005C
:100430006208EA026308F000F0176408EF0065083C
:10044000EE00ED010310F00CEF0CEE0CED0CEA0BDE
:10045000212AEB1F2E2AEC14CF2AEC106A10EC167E
:10046000693084008313E42AEC12EB1B412A6A1CD6
:100470004C2AF00CEF0CEE0CED0CF70A0319CA2A0B
:100480004C2AF01B4F2A0310ED0DEE0DEF0DF00D71
:10049000F7030319CA2A412AEC17772AEC136708D5
:1004A000EB00EB1F552AF017C32AF013C32A670885
:1004B000F000F0176808EF006908EE00EB1F642AEF
:1004C000F0136C15CF2A6C11ED016A1065308400B1
:1004D0008313E42AEB1B8D2A6308EB006A1C772A3E
:1004E000F00CEF0CEE0CED0CF70A0319CA2AED1F05
:1004F000882AEE0A031D882AEF0A031D882AF00ABB
:10050000031D882AF00CEF0CEE0CF70A0319CA2A17
:100510006C1B0C2AEC1B4E2AAC2A8030F006F01F14
:10052000952ACF2A6708EB00A22A6308EB00F0089F
:10053000031DA22AEF08031DA22AEE08031DA22A0A
:10054000F701C32AF01BAC2A0310ED0DEE0DEF0DE1
:10055000F00DF70BA22ACA2AEB1FB02AF017C32A04
:10056000F013C32A6608F7006708F0006808EF0078
:100570006908EE00C32A6208F7006308F000640807
:10058000EF006508EE007008F8006F08F9006E08CB
:10059000FA00022BF701F801F901FA01022BED0133
:1005A000EE09EF09F009ED09ED0A031DDD2AEE0A57
:1005B000031DDD2AEF0A0319F00A6C18EB29EC1869
:1005C0002D2A6C19632A922A0008EE07031CEE2AD2
:1005D000EF0A031DEE2AF00A03196A1484030008C7
:1005E000EF07031CF62AF00A03196A1484030008B3
:1005F000801F803AF00703186A146C1AF229EC1A6B
:10060000342A6A2A0800D601D501D4017F30D300EC
:10061000DA01D901D801D7015B14DB105B11DD01D0
:100620004F085004031D192BF701F801F901FA01D5
:10063000EC2C5D08DD0A4F078400831350188317E4
:100640000008DC00DC080319AA2C5B1C392B5C08B1
:10065000203C0319392B5B105C082B3C031D332B0A
:10066000DB10A02C392B5C082D3C031D392BDB142F
:10067000A02C5B18432B5C082E3C031D432B5B19FD
:10068000432B5B15A02C5B189E2C5C082F3C031899
:100690009E2C5C08393C031C9E2C3030DC025B1D18
:1006A000682C5608E1005508E0005408DF005308A4
:1006B000DE00E501E4012030E3008230E200302179
:1006C0007A08D6007908D5007808D4007708D300D6
:1006D000E3015C08E200A5217A08E1007908E00066
:1006E0007808DF007708DE006108E5006008E400B4
:1006F0005F08E3005E08E2005608E9005508E800DC
:100700005408E7005308E60062080319492CEE007C
:1007100066080319492CEE02031C932B7F30EE0769
:100720000318492C992B8130EE02031C492C031924
:10073000492C6E08F700F801F901FA01ED01630890
:10074000EC00EC176408EB006508EA001930EE00D5
:100750006908EA020318BC2B0130EB020318BC2B1A
:10076000EC020318BC2BED020318BC2BED0AEC0ABB
:10077000EB0A6908EA07EE2B6808EB020318D72B8F
:100780000130EC020318D72BED020318D72BED0A2A
:10079000EC0A6808EB076908EA07031CEE2BEB0A72
:1007A000031DEE2BEC0A031DEE2BED0AEE2B670862
:1007B0008038EC020318ED2B0130ED020318ED2B0D
:1007C000ED0A67088038EC076808EB07031CCB2BA1
:1007D000EC0A031DCB2BED0ACB2B7A14EE0BF12B7D
:1007E000FC2B0310EA0DEB0DEC0DED0D0310FA0DD3
:1007F000F90DF80DEF0DA82B6F1C042C0310F80C4D
:10080000F90CFA0CEF0C072CF7030319492CEF1B1A
:10081000302C0310EA0DEB0DEC0DED0D6908EA022A
:1008200003181C2C0130EB0203181C2CEC020318DB
:100830001C2CED02031C3F2C6808EB020318272C2C
:100840000130EC020318272CED02031C3F2C670833
:100850008038EC020318302C0130ED02031C3F2CD1
:10086000FA0A031D3F2CF90A031D3F2CF80A031D49
:100870003F2CF70A0319492CF80CF90CFA0C630801
:10088000EE006708EE06EE1F472CF8174D2CF81304
:100890004D2CF701F801F901FA0183105A08E5001F
:1008A0005908E4005808E3005708E2007A08E90014
:1008B0007908E8007808E7007708E600C2217A089E
:1008C000DA007908D9007808D8007708D7009D2C7D
:1008D000E101E0012030DF008230DE005A08E5004F
:1008E0005908E4005808E3005708E20030217A086C
:1008F000E1007908E0007808DF007708DE00E30116
:100900005C08E200A52183106108E5006008E400AE
:100910005F08E3005E08E2007A08E9007908E80071
:100920007808E7007708E600C2217A08DA0079083B
:10093000D9007808D8007708D700A02C5B1CAA2C17
:100940005D08DD0A4F0784008313501883170008E1
:10095000DC00222BDB1CC32CE101E0018030DF0036
:100960007F30DE005A08E5005908E4005808E3002B
:100970005708E20030217A08DA007908D9007808AF
:10098000D8007708D700510852040319E42CDD0879
:100990000319D92CDD0351088400831352188317DF
:1009A0005D084F078000840A500880000318800A01
:1009B000E42C51088400831352188317840A5008CA
:1009C000800084034F0880005708F7005808F8009B
:1009D0005908F9005A08FA0008008318F22C64300C
:1009E00084008313F701F801F901FA01E401E5013C
:1009F000E601E70163086204610460040319302D15
:100A00002030E8000310DC0DDD0DDE0DDF0DE40D00
:100A1000E50DE60DE70D63086702031D192D620859
:100A20006602031D192D61086502031D192D60085A
:100A30006402031C2A2D6008E4026108031C610F94
:100A4000E5026208031C620FE6026308031C630FE1
:100A5000E7020314F70DF80DF90DFA0DE80B022D5E
:100A600064088000840A65088000840A66088000A3
:100A7000840A6708800008000408D4005308D600E0
:100A800003195B2D5208E1005108E0005008DF0017
:100A90004F08DE00E501E4012030E3008230E2008F
:100AA00030217A08D2007908D1007808D000770880
:100AB000CF00D60B422D5208DF005108DE0050084F
:100AC000DD004F08DC005C08B63CDC00FA015D0884
:100AD000E000DD170310DD0CDE0CDF0CFA0CF90C66
:100AE000F80CF70CDC0B6A2DE01F812DF709F809D3
:100AF000F909FA09F70A0319F80A0319F90A031997
:100B0000FA0A7A08D2007908D1007808D00077086C
:100B1000CF00D21F982DD403D416CF09D009D10904
:100B2000D209CF0A0319D00A0319D10A0319D20A2C
:100B30003B30DB009A30DA00CA30D900D8010A30E5
:100B4000D60053080319D40A83144F30840083134A
:100B50005208DF005108DE005008DD004F08DC00BD
:100B60005B08E3005A08E2005908E1005808E00079
:100B7000ED247808F708031DD02D530A56020319F7
:100B8000D02D54080319D22D0F3956020319CA2D3E
:100B90000318062ED41B062E541BD22D2030012EF6
:100BA0002030D405D41EE12DD4125308031DD403E4
:100BB0007708D4002D300C1EDB2D99005408F70067
:100BC000D40153085602031DF02D7708D4002E30AF
:100BD0000C1EE82D99005408F7002030D405003091
:100BE0003030D41E012ED4125308031DD4037708CD
:100BF000D4002D300C1EFA2D99005408F700D401B2
:100C00003030F70777080C1E032E990083105B081D
:100C1000DF005A08DE005908DD005808DC00E30157
:100C2000E201E1010A30E000ED247A08DB007908F6
:100C3000DA007808D9007708D800D60BA42D080070
:100C40000B08D0008B13831603178C170C140000AD
:100C5000000083120313D01B8B170318582E0317A1
:100C60000C087F390313D00003170D080313D100BC
:100C700003170F080313D20050080C1E3D2E9900D5
:100C8000510803178D000313520803178F00031335
:100C90000B08D3008B13831603178C170C1400005A
:100CA000000083120313D31B8B17CF0B582E782E03
:100CB00003170C0D0E0D7F390313D00003170D0819
:100CC0000313D10003170F080313D20050080C1EA2
:100CD000672E9900510803178D000313520803175C
:100CE0008F008D0A03198F0A03100313CF0B202ED8
:100CF0008A110A12142F03081F3983004910CA01F0
:100D0000CB01C910713083168F0090010F080317B3
:100D1000871510300313990000309A00A630980010
:100D2000903083129800CD01CC0183160317090877
:100D3000C039890003131F129F1200300317880067
:100D4000831287018801890183130313AB01AC016E
:100D5000CE01C830CF00B8208C1EAC2E1A08CC288B
:100D6000831686178312861BC72ECE08031DC72E37
:100D70006F300C1EB92E99006E300C1EBD2E9900DE
:100D80000A300C1EC12E99000130CE00262F83168A
:100D900086178312861FD72E4E0BD72E513003177E
:100DA0008D0000308F000313D628CE01262F491C5A
:100DB000262FD0013930CF00D201D10103237A0888
:100DC000B4007908B3007808B2007708B100D00108
:100DD0004130CF00D201D10103237A08B80079084D
:100DE000B7007808B6007708B50053300C1EF62E11
:100DF00099003D300C1EFA2E990089308400340889
:100E0000D2003308D1003208D0003108CF000230C0
:100E1000D3003C25563003178D0000308F0003109F
:100E200004300313CF00202E893084003808D2000C
:100E30003708D1003608D0003508CF000230D30083
:100E40003C250A300C1E222F990049100130CF009A
:060E5000B820B02E630083
:04400E00C42FFF3F7D
:00000001FF
;PIC16F886
;CRC=F300  CREATED="15-¡.¾.-17 20:32"
